S02B0000433A2F55736572732F536964646861727468204E6175746979616C2F4F6E6544726976652F446F6355
S315080000000004002085780008ED240308ED24030881
S31508000010A33A0308ED240308ED240308ED24030896
S31508000020ED240308ED240308ED240308ED24030852
S31508000030ED240308ED240308D5890008ED240308F8
S31508000040ED240308ED240308ED240308ED24030832
S31508000050ED240308ED240308ED240308ED24030822
S31508000060ED240308ED240308ED240308ED24030812
S31508000070ED240308ED240308ED240308ED24030802
S31508000080ED240308ED240308ED240308ED240308F2
S31508000090493E0108BD590308ED240308ED24030869
S315080000A0ED240308ED240308ED240308ED240308D2
S315080000B0E55F0008ED240308ED240308ED24030892
S315080000C0ED240308ED240308ED240308A599000888
S315080000D0ED240308ED240308ED240308318F0008F6
S315080000E0118F0008AD270308B3270308B9270308AB
S315080000F0ED240308B5F8020889010308DDFA0308A8
S31508000100D9FA0308FDF80208F3FA0308E1FA030826
S3150800011059010308E5FA0308C9010308310203086F
S31508000120ED240308ED240308ED240308ED24030851
S315080001307D340308ED240308ED240308ED240308A1
S31508000140ED240308ED240308ED240308ED24030831
S31508000150ED240308ED240308ED240308ED24030821
S31508000160ED240308ED240308ED240308ED24030811
S31508000170ED240308ED240308ED240308ED24030801
S31508000180ED240308A52F0108ED24030825350408E6
S315080001900DE40208ED240308C7FA0308CDFA03089C
S315080001A0ED240308ED240308ED240308ED240308D1
S309080001B0ED24030821
S315080001C0F0B5114A114C124E00F00105E3695F07BC
S315080001D013D40DB9334213D103EA00078F4207D16E
S315080001E00B4A1A40002A0CBF00206FF00100F0BD30
S315080001F0013AEBD16FF00200F9E74FF0FF30F6E76E
S315080002006FF00100F3E700BF8096980000000350E6
S31508000210020001000B4B70B5D96911F480310DD17C
S3150800022001244FF48072084E084DF46020462C6471
S315080002301A61FFF7C5FF3464EC6070BD6FF001000A
S31508000240FBE700BF000003500010035000200350D6
S31508000250C0F30C0370B5054623B140F21A211148C4
S3150800026000F0A2F84FF480320F4B104C9A66E669FC
S3150800027041F6713316400122E3630D4B0021DA6023
S315080002800223656121202361FFF79AFF10B9212017
S31508000290FFF796FF0122074BDA600EB10023E363EE
S315080002A070BD00BF195404080090005000000350A8
S315080002B0001003500020035070B5134C6061E369C9
S315080002C05B071ED40E4656F8043B8D18A361AE4252
S315080002D00BD10423002121202361FFF771FF58B9B0
S315080002E0BDE870402120FFF76BBF08210846FFF7DD
S315080002F067FF10B10423236170BD56F8043BA36160
S31508000300E5E74FF0FF30F7E7000003502DE9F84323
S31508000310154682070F46064604D040F266211E4857
S3150800032000F042F8AB0704D04FF41A711A4800F0EF
S315080003303BF84FF48032194BDFF868909A6603F55C
S315080003401C33DA6902F4803841F67132DA63012225
S3150800035003F58053DA6065B928460122104BDA6046
S31508000360B8F1000F03D00022A3F50053DA63BDE805
S31508000370F88306F5005404EA0904A41BAC4228BF16
S315080003802C46394622463046FFF796FF0028E4D128
S31508000390264427442D1BDEE7195404080090005014
S315080003A00020035000E0FFFF5FF800F08F260308E7
S315080003B0000000000000000000000000000000002F
S315080003C0013800D0FCE7704738B505462B68084663
S315080003D0C2E90031144613F0A1FE41EC100B01F0FE
S315080003E08BF919A3D3E9002351EC100B14F02AF862
S315080003F041EC100B01F014FC51EC100B14F092F9BF
S31508000400D5ED017AFEEECC7A17EE903AD5ED027A62
S31508000410FEEECC7AA38317EE903AD5ED037AFEEE7C
S31508000420CA7AE38317EE903AD5ED047AFEEECA7AD5
S31508000430238417EE903A63840023A060C4E9053349
S31508000440C4E9033338BD00BFEF39FAFE422EE63F52
S3150800045008B510EE100A13F073FE00220C4B13F0C9
S31508000460F1FF41EC100B01F08BF907A3D3E9002348
S3150800047051EC100B13F0BCFE14F09CF900EE100AB8
S3150800048008BD00BFAFF3008000000000009C91404B
S3150800049000E08540000000004FF47A732DE9F04F24
S315080004A005682DED028B5543B5FBF3F50C460D603B
S315080004B041684FEA450A4A43B2FBF3F2504683B015
S315080004C0A26014F005FD0746606058B9424B4348E0
S315080004D01B68D96814F0D0FD002003B0BDEC028B70
S315080004E0BDE8F08F07EE905AF8EEE77A17EE900A15
S315080004F013F026FE02460B4635A1D1E9000113F09A
S31508000500A1FF14F057F9002683464FF000089FED27
S31508000510348ADFF8D890B5420CDC002350462361B4
S3150800052014F0D6FCE060002844D12B4B2D481B68FC
S31508000530D968CFE7304613F0F1FD42464B4613F033
S31508000540A1FCCDE90001584613F0FAFD02460B4618
S31508000550DDE9000113F04CFE14F02CF900EE100A48
S3150800056015F0A2F910EE100A13F0EAFD42464B46C2
S3150800057013F03EFE02460B464046494613F080FC01
S3150800058014F018F907EE900A67EE887A17EE900AC3
S3150800059013F0D6FD42464B4613F074FC41EC100BA3
S315080005A001F0BEFB51EC100B14F0BCF827F816004E
S315080005B00136B0E7504614F08BFC606120B9064B53
S315080005C009481B68D96885E7012086E7AFF30080EC
S315080005D0182D4454FB211940BC5006204E3B0408F4
S315080005E000008045763B0408973B04080000E03F7E
S315080005F038B50022164B51EC100B13F0F9FD10A379
S31508000600D3E9002304460D4614F082F870B90EA308
S31508000610D3E900232046294614F05CF858B9204649
S31508000620294614F017FC00EE100A38BD47F6FF33CA
S3150800063000EE103AF9E74FF6FF33F9E7AFF300801B
S315080006400000000000FCEF400000000000FCEFC0C6
S315080006500000E040000000002DE9F04F93B0CDE91E
S315080006600A32DDE91C530E9353EC102BCDE9080131
S31508000670104619468DED060B1E9E14F021F880B122
S31508000680DDE906014FF0FF32C54B14F041F840B9D9
S31508000690DDE906014FF0FF326FF4801314F01AF803
S315080006A070B1DDE908019DED060B0E9B1E96CDE99E
S315080006B01C53DDE90A3213B0BDE8F04F00F088B9E3
S315080006C00022DDE90601002314F004F8002800F0F2
S315080006D03381DDE906A303F1004BCBF30A5016F488
S315080006E08063A0F2FF3008BF06250F9313F016FDAE
S315080006F09BA3D3E9002313F07BFD9BA3D3E9002337
S3150800070013F0C0FBCBF31304894644F07F518046AF
S315080007100022A44B504641F4401113F0B1FB94A3B8
S31508000720D3E9002313F064FD02460B4640464946CA
S3150800073013F0A8FB13F0F6FF044613F0EFFC8EA3A4
S31508000740D3E900238046894613F052FD0022964BD2
S3150800075013F098FB13F0E6FF89A3D3E900230746B5
S315080007604946404613F044FD80463846894613F00C
S31508000770D5FC85A3D3E9002313F03AFD02460B46C0
S315080007804046494613F07CFB02460B46CDE90C234E
S3150800079013F02EFDDDE90C238046894610461946DE
S315080007A013F070FB0022CDE91001804B4046494604
S315080007B013F048FE00227E4B13F064FB02460B46FC
S315080007C04046494613F03EFE00227A4B13F05AFB88
S315080007D002460B464046494613F034FEDDE90C2333
S315080007E08046894600204FF0804113F049FB0246B7
S315080007F00B464046494613F045FB02460B46DDE9E3
S31508000800100113F01FFE07F2FF3700226A4B13F0A0
S3150800081039FB00223B0513F0EBFC52465B4680464B
S31508000820894613F075FF002840F08980CDE90C89C8
S3150800083004F16303C72B34BF0427052731051BD5ED
S3150800084053A3D3E900235046594613F057FF00280F
S315080008507FD051A3D3E900235046594613F03AFFF7
S31508000860002876D00027A542C6BF2C1B04F1FF3509
S3150800087000253C4646F480660E9B9F422CBF4FF0EF
S315080008800008A3EB070816F0020903D0002F18BFCB
S315080008904FF000083CB1DDE90C235046594613F0E9
S315080008A0D1FD82468B46DDE906010022002313F0BE
S315080008B011FF10B10BF100439B46DDE9080126F450
S315080008C00063CDE90183DDE90A324BEC10AB0095F4
S315080008D000F07EF802465FB3DDE9091316F0200F33
S315080008E000F10105089E0CBF65204520B047DDE9EB
S315080008F008010523002205930A23002CCDE90232BC
S3150800090007F1FF374FEAD473B8BF64422A4601930A
S3150800091004970A9B009433F013FA0246B9F1000FC4
S3150800092006D00B9BC41A0B9B1A190E9BA34245D8DB
S31508000930104613B0BDE8F08FDDE906ABCDE6002220
S31508000940404649461A4B13F07DFD013CCDE90C01A2
S315080009506EE7002D90D00F9B002B8DD0013D8BE7C5
S31508000960FB799F501344D33FB3C8608B288AC63F90
S3150800097061436F63A787D23F71A379094F930A40F2
S315080009801655B5BBB16B0240EF39FAFE422EE63F6B
S315080009902D431CEBE2361A3F0000000080842E41EE
S315080009A0FFFFEF7F0000F83F0000E03F00002C400B
S315080009B000002440000018400000F03F2020DDE938
S315080009C00913089DA8470134ADE700BF00000000E1
S315080009D02DE9F04F5BEC10AB97B0CDE90501DDE9E9
S315080009E02057CDE90723504652465B465946229E74
S315080009F013F066FE70B90323CDE902760193B04B76
S31508000A000093DDE90501DDE9072333F0B9F817B0EE
S31508000A10BDE8F08F4FF0FF326FF480135046594609
S31508000A2013F058FE28B10423CDE902760193A54BAD
S31508000A30E6E74FF0FF3250465946A34B13F068FEDF
S31508000A4068B1A24A06F00403002B08BF0322A04B94
S31508000A501CBF13460422CDE902760192D0E7504620
S31508000A6093A3D3E90023594613F052FE38B992A34B
S31508000A70D3E900235046594613F02CFE68B1DDE948
S31508000A800723DDE905014BEC10ABCDE9217620956E
S31508000A9017B0BDE8F04FFFF7DFBD00220023504630
S31508000AA0594613F017FE002800F09A805B46524616
S31508000AB00020002113F0E4F9012382468B460993AE
S31508000AC016F4806400F08E80092D40F28E80002492
S31508000AD030210EABA5F109020134202C03F8011BC5
S31508000AE0A5EB040901D09442F6D15946504613F0B5
S31508000AF019FE784B054603EBC90393ED007B8DED94
S31508000B000A7B13F00BFB02460B465046594613F078
S31508000B10B7F9DDE90A2313F06BFB02460B46CDE96C
S31508000B200C2313F027FE804613F0E8FA02460B461C
S31508000B30DDE90C0113F0A4F902460B46CDE90C23B6
S31508000B400022654B13F0E4FD002851D008F1010896
S31508000B50404613F0D3FA02460B46DDE90A0113F0C4
S31508000B60C3FD10B14FF000080135B9F1000F50D19F
S31508000B70284613F0D3FA02460B465046594613F058
S31508000B807FF90022544B8046894613F0A3FD30B105
S31508000B90002240464946504B13F0BAFD10B1E8070B
S31508000BA000D501350A210EAB1A19202C0AD095FB5F
S31508000BB0F1F001FB1055303502F8015B01340546AA
S31508000BC00028F2D106F00302012A57D1002F55D08A
S31508000BD0099A12B916F00C0F00D0013F302245E0F1
S31508000BE009906DE74FF006097FE7A94600247CE7E0
S31508000BF00022DDE90C01384B13F06CFD0028B4D156
S31508000C00B8F1000F02D018F0010FAED008F10108B4
S31508000C10ABE70A210EAB2344202C0ED0B8FBF1F02B
S31508000C2001FB1082B8F1090F02F1300209F1FF3910
S31508000C3004F1010403F8012B11D83021A1440EAAAE
S31508000C40202CAFD0A14504F101030AD11C4609F1B5
S31508000C5058030DEB03092E2309F8203CA2E780462A
S31508000C60DAE7A1541C46EBE71A550134A74205D921
S31508000C70202CF9D1CDE902760194C1E6202CF9D0D1
S31508000C80099A3AB12D2104F158026A4402F8201C47
S31508000C900134EFE7710704D504F158022B216A44A1
S31508000CA0F4E73207E6D504F1580220216A44EDE755
S31508000CB00000000065CDCD410000000065CDCDC126
S31508000CC02564040829640408FFFFEF7F1C640408F0
S31508000CD021640408306404080000E03F00000000B6
S31508000CE02DE9F04F2DED088B97488FB00FF020FFB8
S31508000CF096480FF01DFF92A3D3E900239448CDE947
S31508000D000023944B00220FF013FF0622012192487C
S31508000D100FF00EFF91480FF00BFF41F059FA01460C
S31508000D208F480FF005FF8F480FF002FF402004F0B0
S31508000D305BFE0146002840F0A2808B480FF0F8FEC3
S31508000D40002210250AAE1146104664230196009526
S31508000D5040F094FA85480FF0EBFE02F0A3FB8448B6
S31508000D600FF0E6FE42F0C6FA01210446084640F0B6
S31508000D70B3FD204642F0B9FA01227E4B7E481A702E
S31508000D800FF0D6FE0023022219461846CDE9005672
S31508000D9040F074FA79480FF0CBFE03F005FD0146E2
S31508000DA0774812F04FFF03F005FD0146754812F02B
S31508000DB049FF03F0F9FC044630F042FE021E0BDD43
S31508000DC0204634F095FD011E06DD02EB42038B42F8
S31508000DD059D16D480FF0ACFEFF226C4B6C481A7067
S31508000DE05A709A70DA701A715A710FF0A1FE0023C0
S31508000DF01F460693674B0AAC1A785E4B1B78002A87
S31508000E0049D1654A127802F0FF010791002A42D0BB
S31508000E1063B942F06FFA01210546084640F05CFDC9
S31508000E20284642F062FA0123524A13700022082328
S31508000E3011461046009301944FF4FA7340F01EFAD7
S31508000E4002F064FA03F0B0FC054600283DD1534A87
S31508000E501368591C022B116002DC51480FF068FE1A
S31508000E60092F05DD322297FBF2F302FB13731BB938
S31508000E7039464C480FF05CFE069B07933EE24A480B
S31508000E800FF056FE5CE78A4201D14848A2E7484877
S31508000E900FF04EFEA0E763B142F02CFA054600219A
S31508000EA0012040F019FD284642F01FFA0023314A76
S31508000EB0137012F039FE00221023114600931046D3
S31508000EC0C823019440F0DAF994E730F0B9FD824678
S31508000ED0284634F00DFDBAF1000F014611DC212138
S31508000EE02E4A13680133032B136006DD322293FB67
S31508000EF0F2F002FB1033002BB2D12E480FF018FE89
S31508000F00AEE70028EBDD824558D1284630F08DFD46
S31508000F1001460028E4D103F041FC204C0546002890
S31508000F2040F0998123680133032B236006DD3222C2
S31508000F3093FBF2F102FB1133002B91D11E488DE78A
S31508000F40000000A09999B93FDD7D04081F7E0408BA
S31508000F50577E04080000D03F7F7E04089F7E040861
S31508000F60E07E0408007F0408267F04086D7F0408D5
S31508000F709E7F0408EC4B0620BA7F0408F27F04081B
S31508000F800F800408158004081C800408F04B06200E
S31508000F906A800408E93B062088520620149C05202E
S31508000FA0DA80040877820408447F04084980040824
S31508000FB09E800408F88004081C8104080AEB4A038A
S31508000FC0984240F03C81BAF5805F88DC28239AFB7A
S31508000FD0F3F403FB14A4002C81D15146C94802F04E
S31508000FE0F5F9014600287FF47BAFDFF8188322461F
S31508000FF04346264633F8021BB1468A4206F10106E5
S31508001000B8BF0A46B245F5D1A2F5967121EAE17153
S31508001010521A012AB8BF012200206FF07F0ADFF8B2
S31508001020F8C2DFF8E0E23EF8023B5B1AC3EB0323A3
S3150800103093FBF2F3803B7F2BA8BF7F235345B8BFB2
S31508001040534648450CF8013B00F10100EBD14FF03F
S315080010502809DFEDAD8ADFF8BCB2B6FBF9F9DA4646
S315080010600026B0EE689ADFEDA9AA9FEDA9BAB145A8
S315080010703FD1DFF8B48200234246B7EE007A9E429B
S3150800108040F0B1800023B7EE007A9E4240F0C1805E
S315080010902B7F092B7FF423AF4FF0780B4FF0280AEC
S315080010A0A6423FF438AFB8EC010A284612F072FDA2
S315080010B0984B814603EB840393ED000A284612F009
S315080010C069FD954A0BFB04F30AFB042103F1780C2E
S315080010D02A6911F901EB02F803E02A691A4482F831
S315080010E001902A691A4403339C459070F0D1013463
S315080010F0D6E7424600239FED898ADFED899A32F8C2
S31508001100021B013307EE901AF8EE677A67EEAA7AA1
S31508001110F4EE487AF1EE10FA37FE888A282B79EE33
S31508001120A79AECD1424600239FED7DAAF1EE48BA74
S31508001130099332F8023BB0EE6B0A07EE903AF8EEE6
S31508001140677AA7EEAA0A089214F0E4FA099B3AEE1F
S3150800115000AA0133282B089AEAD18AEE0B0A14F062
S3150800116015FB30EE08AA89EE8B0A30EE4A0A14F00F
S31508001170D1FAF7EE009AB4EE690AF1EE10FADFED4D
S31508001180697AB0EE697A39FE800AA0EE277AB0EE5F
S31508001190470A14F0FBFAB4EEC90AF1EE10FA624BEC
S315080011A030FE098A03EB860383ED000AB6EE000AD1
S315080011B02AEE000A14F0AEFADFED5C7AE0EE279A22
S315080011C0B0EE690A14F0E2FAB4EEE80AF1EE10FAA3
S315080011D0AAEC010AB0EE489A06F1010608F1500891
S315080011E070FE288A43E7D2ED006AC6EE897AF5EEE4
S315080011F0C07AF1EE10FA09D4F4EE477AF1EE10FA55
S3150800120077FE277AE2EC017A013338E7DFED447A94
S31508001210F8E7DBED006AC6EEA87AF5EEC07AF1EEDD
S3150800122010FA09D4F4EE477AF1EE10FA77FE277A27
S31508001230EBEC017A013328E7DFED397AF8E73C4B26
S315080012401A78002A7FF44BAE01223A481A705246A1
S315080012500FF06EFC43E642F021F9374E80463168BE
S31508001260022903D8354801310FF062FC284616F0EA
S3150800127077FD054642F012F9814640F0A9FF02467D
S3150800128048B14FF47A71A9EB08000023A0FB0101CD
S3150800129013F030FB02463168022905D91420B1FB48
S315080012A0F0F300FB13131BB9254801310FF040FC7E
S315080012B03368013333607DB123680133032B236020
S315080012C007DD322293FBF2F102FB1133002B7FF488
S315080012D0C7AD29461B4811E6069B256013B91A486F
S315080012E00FF026FC194B1B78002B77D0184B1B7870
S315080012F0002B73D003F05EFA814658BB079B013773
S31508001300069377E56CF605205F7089300000803C0F
S3150800131000002042189C0520EC3B0620286B6ECE68
S315080013200000000000007A44189E05200000C8420C
S31508001330EF4B06209E800408109C0520398104087E
S31508001340538104087681040891810408885206208E
S315080013508752062034F0CCFA032801460ADC984B5B
S315080013601A78002ACAD1012296481A7004220FF068
S31508001370DFFBC3E703F018FA002850D08669002E71
S315080013804DDD90F81CE00369BEF1090F29D1002054
S3150800139000240025014603EB060C13F9012B10184F
S315080013A041EBE2719C45C2FB8245F6D14FEAE67AEB
S315080013B03246534613F04EFA324680465346204686
S315080013C0294613F047FA08FB1801B1F5FA6F26DA31
S315080013D07D480FF0ADFBFF2012F08EFB12F0A4FB48
S315080013E08CE7002000240025014626F0030C4FEA6E
S315080013F0A6089C449C4504D1BEF1010F08BF464689
S31508001400D4E7F3EC017AB0EE677ABEEEEC7A17EE23
S31508001410102A1018C2FB024541EBE271EAE748467A
S31508001420002112F0D7FB0121B0EE408A12F0D2FB60
S315080014300221F0EE408A12F0CDFB0321F0EE409A2D
S3150800144012F0C8FB18EE100AB0EE409A12F078FEB9
S31508001450044619EE100A0D4612F072FECDE9040193
S3150800146019EE900A12F06CFECDE9020118EE900A08
S3150800147012F066FE2246CDE900012B4653480FF0CE
S3150800148057FBF5EE007AB4EEE78AF1EE10FA50490A
S31508001490504A1ADADFED507AB4EEE78AF1EE10FA1E
S315080014A008DBDFED4E7A78EEA78AB4EEE88AF1EE2D
S315080014B010FA16DA1378FF2B2DD100230B700423AC
S315080014C0137047480FF034FB85E7DFED447A78EE72
S315080014D0A78AB4EEE88AF1EE10FAEBDB01230B706B
S315080014E002E00B78002BE5D000231370F4EEC99ABE
S315080014F0F1EE10FAACBF01260026304612F0FCFACF
S315080015000021384B384D18682C460628A8BF0620F7
S315080015100A460B460FE00133DBB2032B1370CCD817
S315080015200B78002BE2D1CCE714F801CBBCF1010F04
S315080015300BD1013301318842F6DCD34203D0012BAB
S3150800154008DD012A0EDDFF2411E0BCF1000FF1D100
S315080015500132EFE79342F6DCD21A012ACCBF002407
S31508001560FF2404E09B1A012B14BF0124FF24DFF893
S315080015708C901E4859F826100FF0DAFA194B0026F7
S315080015801B68DFF87CA0062BA8BF06239846DFF861
S3150800159074B0B045164B05DCFF2C35D115480FF055
S315080015A0C7FA1BE715F8012B42B1012A14BF5946A1
S315080015B0194611480FF0BCFA0136EAE75146F8E732
S315080015C0EB3B0620C9810408FC810408158204083F
S315080015D0EE4B0620ED4B0620CDCCCC3DCDCC4C3D7C
S315080015E04A8204081CA00520F04B06205C820408E9
S315080015F01B7405080E8204086C8204080883040814
S315080016000F7405088E79050859F8241031480FF02B
S315080016108FFADFED317A28EE278AB5EEC08A012CDB
S315080016200CBF4FF002084FF00108F1EE10FA44D44F
S31508001630B4EE678AF1EE10FA37FE888AF6EE007A7B
S3150800164038EE278AFCEEC87ACDED067A234B9DF84C
S3150800165018501B789D42FFF4C1AE41F01FFFDFF81A
S3150800166090A00646DAF800B040F0B2FDDFF88490A4
S31508001670024658B14FF47A70A6EB0B010023A1FB82
S31508001680000113F037F9B0F57A7F03D299F80030E4
S31508001690434505D029464046CAF8006012F00AFAC2
S315080016A00F4889F800805CB931F08CF80D4831F0A4
S315080016B089F80D4831F089F820E69FED0C8ABDE7D8
S315080016C031F083F8074831F080F8074831F07AF8A6
S315080016D014E600BF708204080000C842865206203D
S315080016E0F8850408E0850408C88504080000000099
S315080016F018A005208952062038B555EC104B2DED5B
S31508001700028B00F091FB22462B4620462946B0EE76
S31508001710408AF0EE608A2FF04DFA98B9002200232D
S315080017202046294612F0F4FF60B90022002320461D
S31508001730294612F0C5FF60B113F042FD22239FED42
S315080017400C8B0360B0EE480AF0EE680ABDEC028B1B
S3150800175038BD13F035FD212203460748BDEC028B40
S315080017601A60BDE8384000F053BA00BFAFF30080F6
S31508001770000000000000F0FF786505080000000082
S31508001780BD4B2DE9F04F5BEC10AB9B4585B05C4635
S3150800179013DC2BF00045B94B9D426CD90022B84B9F
S315080017A05046594612F08CFF002800F0F6800120BA
S315080017B005B0BDE8F04F14F013B9B24B9B4500F3E2
S315080017C0E180B14B9B4540F3BA81251556469FEDFE
S315080017D0947BA5F2FF358DED027BC4F31304AB4B66
S315080017E09C4200F3A18144F07F57304647F44017E6
S315080017F039460022A64B12F043FB06460F46002246
S31508001800A44BB24612F0F4FC32463B46BB4612F0F5
S31508001810EFFC80468946CDE90089002C42D100229A
S3150800182000233046394612F04BFF002800F0D880D6
S31508001830002D00F0A381284612F070FC06460F46DC
S3150800184079A3D3E9002312F0D3FCDDE9022312F0D1
S3150800185019FB04460D463046394675A3D3E90023DD
S3150800186012F0C6FC02460B462046294612F00AFB31
S3150800187041EC100B8EE0A3F1E8739D4240F2948090
S31508001880854B1C449C4240F25A810022814B5046AB
S315080018905946002512F0ACFC52465B4612F0A8FCED
S315080018A0CDE9000100224FF080435046594612F018
S315080018B0E9FA02460B465046594612F0C3FD02465F
S315080018C00B468046894612F093FC06460F465AA3F5
S315080018D0D3E9002312F08CFC59A3D3E9002312F0B4
S315080018E0D1FA32463B4612F083FC57A3D3E90023CC
S315080018F012F0C8FA32463B4612F07AFC54A3D3E9F2
S31508001900002312F0BFFA32463B4612F071FC52A38E
S31508001910D3E9002312F0B6FA32463B4612F068FCC9
S315080019204FA3D3E9002312F0ADFA32463B4612F034
S315080019305FFC4DA3D3E9002312F0A4FA32463B46D6
S3150800194012F056FC06460F46002D40F0AB80DDE946
S31508001950004522462B4612F095FA42464B4612F0AF
S3150800196047FC02460B462046294612F089FA0246EB
S315080019700B465046594612F083FA41EC100B05B057
S31508001980BDE8F08F52465B465046214612F07AFA79
S3150800199041EC100B05B0BDE8F08F4BEC10AB05B071
S315080019A0BDE8F04F14F038B800223C4B5046594673
S315080019B012F068FA0022002312F0AAFE28B1384B6A
S315080019C09D4202D84BEC10ABE4E752465B465046C4
S315080019D0594612F00DFC00222E4B12F009FCC6E700
S315080019E023A3D3E900233046394612F001FC024608
S315080019F00B460020264912F043FA42464B4612F09F
S31508001A00F7FB80468946002D40F0BB8002460B4610
S31508001A103046394612F034FA41EC100BBAE700BFEB
S31508001A200000000000000000763C7935EF39EA3DF9
S31508001A300000E0FE422EE63F44523EDF12F1C23F6E
S31508001A409FC678D0099AC33FDE03CB966446C73F44
S31508001A50AF788E1DC571CC3F599322942449D23F45
S31508001A6004FA97999999D93F935555555555E53F90
S31508001A70555555555555E53F7982DA3FFFFFEF3FF6
S31508001A800000F0BFFFFFEF7FFFFF3F439DA006006A
S31508001A900000F03F0000E03F3C412D40000050436D
S31508001AA0FFFF8F3C284612F039FB04460D4652A329
S31508001AB0D3E9002312F09CFB02460B463046394612
S31508001AC016461F46DDE9002312F0DCF942464B466E
S31508001AD012F08EFB02460B462046294614461D4642
S31508001AE047A3D3E9002312F083FBDDE9022312F0B2
S31508001AF0C9F902460B462046294612F0C3F90246A2
S31508001B000B46DDE9000112F0BBF952465B4612F0BE
S31508001B10B7F902460B463046394612F0B1F941ECA0
S31508001B20100B05B0BDE8F08F44F07F57C4F580145C
S31508001B300135304647F40017A410394659E6002205
S31508001B40314B5046594612F09DF906460D150F467B
S31508001B500C46A5F2FF35002D3DDD52465B4612F0D8
S31508001B608FF902460B460020274912F089F93246BA
S31508001B703B4612F067FCCDE902012EE69FED1C0BF1
S31508001B8008E7284612F0CAFA82468B461AA3D3E912
S31508001B90002312F02DFB04460D465046594618A35D
S31508001BA0D3E9002312F024FBDDE9022312F06AF9D7
S31508001BB002460B464046494612F062F932463B4613
S31508001BC012F05EF902460B462046294612F058F9ED
S31508001BD041EC100BDEE600220B4B12F051F90246DF
S31508001BE00B465046594612F04BF9C0E7AFF3008052
S31508001BF000000000000000000000E0FE422EE63F64
S31508001C00763C7935EF39EA3D0000F03F00000000E8
S31508001C109FED010B704700BF000000000000F87F31
S31508001C2051EC100BC1F30A532DE9F041A3F2FF352D
S31508001C300C460646132D34DC002D20DB364B0F46AA
S31508001C4043FA05F801EA080303432FD030A3D3E982
S31508001C50002312F017F90022002312F059FD40B1B3
S31508001C60002C03DD4FF480132B411F4427EA080498
S31508001C7000262346324643EC102BBDE8F08124A308
S31508001C80D3E9002312F0FEF80022002312F040FDEB
S31508001C900028EED0002C36DB3443E9D000261F4C52
S31508001CA0E7E7332D06DDB5F5806F25D041EC100B3F
S31508001CB0BDE8F081A3F213434FF0FF37DF40384207
S31508001CC0F4D013A3D3E9002312F0DCF80022002392
S31508001CD012F01EFD0028CCD0002C334609DD142D49
S31508001CE006D0C5F134050122AA4013449E4200D904
S31508001CF0013423EA0706BCE702460B4612F0C2F88F
S31508001D0041EC100BD4E700264FF00044B1E700BFC2
S31508001D109C7500883CE4377EFFFF0F000000F03F0B
S31508001D2051EC100BC1F30A532DE9F041A3F2FF352C
S31508001D300C460646132D32DC002D20DB384B0F46A9
S31508001D4043FA05F801EA080303432DD032A3D3E981
S31508001D50002312F097F80022002312F0D9FC40B1B4
S31508001D60002C03DA4FF480132B411F4427EA08049A
S31508001D7000262346324643EC102BBDE8F08126A305
S31508001D80D3E9002312F07EF80022002312F0C0FCEB
S31508001D900028EED0002C2ADB00263446E9E7332D4E
S31508001DA006DDB5F5806F1BD041EC100BBDE8F08160
S31508001DB0A3F213434FF0FF37DF400742F4D016A3D0
S31508001DC0D3E9002312F05EF80022002312F0A0FCEB
S31508001DD00028CED0002C334610DB23EA0706C8E7D6
S31508001DE002460B4612F04EF841EC100BDEE724F0E3
S31508001DF0004426430DD14FF00044BAE7142D06D00F
S31508001E00C5F134050122AA401344B342E5D2013490
S31508001E10E3E70026034CACE79C7500883CE4377E74
S31508001E20FFFF0F000000F0BF53EC102BB3F5801F27
S31508001E302DE9F04F1C4687B058DA23F000411046CA
S31508001E40114300F0F780002B1946C0F234810022B6
S31508001E50D94B12F0CDF90C460B46D84902466FF01D
S31508001E6035008C4246DC2515D549C4F31304A5F282
S31508001E70FF3521440544D34801F48011484005EB59
S31508001E80115540EA0403104600221946CD4B11F0BD
S31508001E90F7FFA31C82468B46C3F31303022B32DCDF
S31508001EA00022002312F00CFC002800F0CE80002D42
S31508001EB000F09281284612F031F906460F46AAA389
S31508001EC0D3E9002312F094F904460D463046394604
S31508001ED0A7A3D3E9002312F08BF902460B46204646
S31508001EE0294611F0CFFF41EC100B09E0B349002059
S31508001EF08C42B8DD1046194611F0C4FF41EC100BB0
S31508001F0007B0BDE8F08F00224FF0804311F0BAFF0A
S31508001F1002460B4650465946DFF8B88212F092FA46
S31508001F2006460F46284612F0F9F832463B46A044C4
S31508001F30CDE9040130463946CDE9026712F058F971
S31508001F4002460B46CDE9002312F052F906460F4623
S31508001F5089A3D3E9002312F04BF989A3D3E9002317
S31508001F6011F090FF32463B4612F042F986A3D3E9B8
S31508001F70002311F087FF32463B4612F039F984A355
S31508001F80D3E9002311F07EFFDDE9002312F030F9D2
S31508001F9081A3D3E90023CDE900013046394612F082
S31508001FA027F97FA3D3E9002311F06CFF32463B469D
S31508001FB012F01EF97CA3D3E9002311F063FF324621
S31508001FC03B4612F015F90B460246DDE9000111F011
S31508001FD059FF7D4B06460F461B1B43EA0803002B99
S31508001FE05BDD0022794B5046594612F001F95246FC
S31508001FF05B4612F0FDF880468946002D64D14246BC
S315080020004B463046394611F03DFFDDE9022312F012
S31508002010EFF802460B464046494611F031FF0246A4
S315080020200B465046594611F02BFF41EC100B07B0F2
S31508002030BDE8F08F002200230020654912F002FA5D
S3150800204041EC100B07B0BDE8F08F59A3D3E9002384
S315080020505046594612F0CCF802460B4600205B491A
S3150800206011F00EFF06460F4652465B465046594645
S3150800207012F0BEF802460B463046394612F0B8F85A
S3150800208006460F46002D56D102460B46504659467F
S3150800209011F0F6FE41EC100B32E7002D40F09F8060
S315080020A002460B465046594611F0EAFEDDE9022380
S315080020B012F09EF8B3E711F0E3FE0022002312F0B7
S315080020C0C1F941EC100B1BE727A3D3E90023DDE98F
S315080020D0040112F08DF842464B4604460D4630463A
S315080020E0394611F0CFFEDDE9022312F081F80646E3
S315080020F00F461FA3D3E90023DDE9040112F078F89F
S3150800210002460B463046394611F0BCFE02460B46DF
S315080021104046494611F0B4FE52465B4611F0B0FE01
S3150800212002460B462046294611F0AAFE41EC100B42
S3150800213007B0BDE8F08F284611F0F0FF80468946C3
S3150800214009A3D3E9002312F053F804460D46404686
S31508002150494607A3D3E9002312F04AF802460B467C
S3150800216030463946D6E700BF0000E0FE422EE63F7D
S31508002170763C7935EF39EA3D44523EDF12F1C23FEB
S31508002180DE03CB966446C73F599322942449D23F2F
S31508002190935555555555E53F9FC678D0099AC33F7F
S315080021A0AF788E1DC571CC3F04FA97999999D93F96
S315080021B0555555555555D53F00005043FFFFEF7F00
S315080021C0645F09000000F03F51B806000000E03FD8
S315080021D0000050C386EBF9FF9FED0D0B90E6DDE995
S315080021E004890DA3D3E900234046494612F000F8B6
S315080021F032463B4604460D465046594611F040FEC7
S31508002200DDE9022311F0F4FF06460F469FE700BFFB
S3150800221000000000000000000000E0FE422EE63F3D
S315080022202DE9F74F0446DDE90C7B886816469A4681
S315080022300D4611F085FF8046B068894611F080FF8B
S3150800224002460B464046494611F0D2FF804689466B
S31508002250BAF1000F1BD0DAF8080011F071FF024638
S315080022600B464046494611F00BFE8046B86821F0F9
S31508002270004911F065FF02460B464046494612F0F2
S31508002280E1F812A3D3E9002312F02EFA50B13B4627
S31508002290324629462046CDF830B003B0BDE8F04FA7
S315080022A015F098B8064B20460093656940F2451329
S315080022B0044A0549A847012003B0BDE8F08F00BFCE
S315080022C02B6B0508846A0508D33C04087B14AE47C3
S315080022D0E17A943F000000002DE9F84F4FF00043E3
S315080022E02DED028B23FA00F057EC106B59EC118B8D
S315080022F093468A4611F012FF424604460D464B465F
S315080023003046394611F074FF02460B4620462946E8
S3150800231011F06EFF02460B4643EC182B0AA3D3E9CD
S31508002320002312F0F5F908B19FED078B5946504680
S31508002330B0EE480AF0EE680ABDEC028BBDE8F84F2D
S3150800234015F094BAAFF300800000C0FFFFFFDF412D
S315080023502DE9F0432DED028B99460B7F89B0072BAB
S3150800236004460F461546129E1AD140F20241836B67
S31508002370984740B9AC4B0093272365692046AB4A7A
S31508002380AB49A84799E0B06240F202412046A36BE8
S31508002390984720B9A74B009365692B23EEE7F062AF
S315080023A02A7F3B7F072A08D1092B3DD0072B13D05C
S315080023B0A14B009365693123E0E79A4234D0CDE911
S315080023C002329E4B01939E4B009334236569204647
S315080023D0964A9C49A84770E0D5F80C80B8F1000FDA
S315080023E009D00023CDE90283974B0193974B0093BD
S315080023F065693923EBE74146DFED950A47F6FF7035
S315080024009FED940AB36A944A16F0CAFFF36A4146E6
S31508002410DFED8F0A9FED910A914A924816F0C0FFA8
S31508002420EB68F361AB68336297F81C80B8F1090F63
S3150800243045D0B8F1070F40F03781FB684BB1002251
S31508002440CDE90232804B0193874B009365695B2384
S31508002450BDE7EA6842B1CDE902237B4B01937B4B8A
S31508002460009365695C23B2E7DFED807A95ED027A21
S31508002470B4EEE77AF1EE10FADFED7D6ACCBF77EEBF
S31508002480677A77EEC77AF4EEE67AF1EE10FA7EDD31
S315080024904FF07C53002217EE100ACDE9042311F001
S315080024A04FFE744BCDE902010193734B00935D23F4
S315080024B0656920465D4A7149A847012086E0287F5C
S315080024C0072832D1EB6813F5004F09D0654ACDE9E4
S315080024D002326B4B01935D4B00936569622376E785
S315080024E0DFED687A95ED027AB4EEE77AF1EE10FA46
S315080024F0DFED656ACCBF77EE677A77EEC77AF4EEDA
S31508002500E67AF1EE10FA66DD0022604B17EE100A45
S31508002510CDE9042311F014FE5D4BCDE902010193C8
S31508002520554B009365696323C3E7092812D066698A
S3150800253014F014FF0546404614F010FF554BCDE93C
S31508002540025001933D4B009366232046374A524971
S31508002550B047B2E7EB6813F1800F0AD06FF07F023D
S31508002560CDE902324D4B0193384B009365696723D9
S315080025702DE795ED027ADFED4A7AB4EE677AF1EE49
S3150800258010FA28D0474B009365696823F6E6B868C1
S3150800259011F0D6FD0446D9F800000D4611F0D0FD1D
S315080025A002460B462046294611F022FE1CA3D3E913
S315080025B0002311F047FF06F1080841EC100B4046CE
S315080025C007A915F00BF9079BF360002009B0BDECCD
S315080025D0028BBDE8F083B86811F0B2FD41EC180B28
S315080025E0D9F8000011F0ACFD06F1080441EC100B17
S315080025F0B0EE481AF0EE681A2146052007AAFFF73A
S315080026006BFE07991F22F160052033F059FE11F081
S3150800261085FD01F1004112F085F8B061D5E700BFEC
S31508002620140014001400243F3C800508CB7F0508DD
S31508002630D33C040853800508CF6B05087680050847
S3150800264083800508403D0408296B05088F80050826
S3150800265080000038A0002039236F030880008037E7
S31508002660156F03080080FFFFA980050800000038E1
S315080026706F120333E2800508EE800508C28005085C
S3150800268003810508000080376F1283320000F03E90
S315080026900A810508168105089F7D05082281050817
S315080026A00000803B27810508B8F1010F0FD040468E
S315080026B0666914F053FE0546012014F04FFE104BD0
S315080026C0CDE9025001930F4B009385233DE7287F00
S315080026D001280ED0666914F041FE0546404614F0FE
S315080026E03DFE074BCDE902500193074B0093862325
S315080026F02BE7D9F8000011F023FDC6E9000164E7CD
S315080027004981050883800508768005080348044B37
S31508002710834202D0034B03B118477047A8520620DC
S31508002720A852062000000000064B0749C91A89105E
S3150800273048BF0131491003D0044B0BB10148184773
S31508002740704700BFA8520620A852062000000000C5
S3150800275010B5064C237843B9FFF7D8FF044B13B1DD
S315080027600448AFF300800123237010BDA816062085
S3150800277000000000486B060808B5054B1BB1054963
S315080027800548AFF30080BDE80840FFF7CDBF00BF9E
S315080027900000000040850520486B0608A3F5803A2E
S315080027A0704700BF174B002B08BF134B9D46FFF71A
S315080027B0F5FF00218B460F461348144A121A33F0C8
S315080027C038FA0E4B002B00D098470D4B002B00D043
S315080027D098470020002104000D000D48002802D06B
S315080027E00C48AFF3008012F0F1FC2000290031F00C
S315080027F076F912F05BFB00BF00000800000000003D
S31508002800000000000004002000040020404D0620BF
S3150800281000000000000000002DE9F04F2DED068BAA
S3150800282009EE103A036889B003F1010A4FEA4A0B28
S315080028300B60804658460C46914612F049FB0290BA
S31508002840E060584612F044FB20610646584612F0EE
S315080028503FFB606107464FEACA0012F039FB206267
S315080028604FEA8A0012F034FB0546584612F030FB50
S315080028700090584612F02CFB029B01902BB126B112
S315080028801FB115B1009B03B1A0B9284612F028FB69
S31508002890009812F025FB019812F022FBC84BC94894
S315080028A01B68D96812F0E8FB002009B0BDEC068B5E
S315080028B0BDE8F08FD8ED028AF5EEC08AF1EE10FA7F
S315080028C0D8ED019A05DA2721BF4BC04AC04812F055
S315080028D0C7FAF4EEE98AF1EE10FA03D42821BD4BC3
S315080028E0BA4AF3E7B0EE680AFDF7B2FDB0EE408AE1
S315080028F0B0EE690AFDF7ACFD07EE90AA30EE480A7D
S31508002900B8EEE77A2A46C0EE077A002303959A4579
S3150800291050DC484611F002FC0022AF4B11F068FC6F
S31508002920B7EE007AF8EEC97A77EEC77A804617EEE0
S31508002930900A894611F004FC02460B464046494671
S3150800294011F080FD11F036FF08EE100AC8EE887AFD
S3150800295017EE900A11F0F4FBA04B002211F092FA40
S3150800296011F0E0FE002381466060984618469B46B3
S31508002970A3600495D04560DB0221584612F08EFA12
S3150800298002210490A061584612F088FA049B05902B
S31508002990E0610BB1002877D1284612F0A1FA009819
S315080029A012F09EFA019812F09BFA854B8C481B6828
S315080029B0D96877E7013307EE103AF8EEC76AB0EE42
S315080029C0487A06EEA77AA2EC017AA0E7013207EE6A
S315080029D0902AB8EEE70A20EE080A06900592FDF757
S315080029E037FDDDE90520049BD3ED007AB4EEE70A4E
S315080029F0F1EE10FAEAD90099A2EB090321F818902A
S31508002A00019921F818300BBB029926F8183021F8DD
S31508002A1018304FF0040327F8183038B9304606EB5B
S31508002A20480E70450BD101200BF1040B049B91460F
S31508002A30043308F1010804939CE74A46C7E7B0F94E
S31508002A4000C00CF1040C20F802CBEAE7B9F1000F3C
S31508002A5009F0010EB8BFCEF1000E9E44BEF1010C7E
S31508002A6048BF0EF1020C029B2CF0030C09EBD97936
S31508002A700CF1040C29F0010926F818B023F818906F
S31508002A8027F818C0E344D1E7B0EE680AFDF7E0FC82
S31508002A904FF00008F0EE409AD04513DB284612F0B6
S31508002AA01FFA009812F01CFA019812F019FA19EE9A
S31508002AB0102AA368934240F39D80414B49481B68FE
S31508002AC0D968EFE6009B33F91890019B33F9183063
S31508002AD00793029B33F9187036F91830A9EB0707E4
S31508002AE0B8F1000F23D0039A12ED01AA4FF0000B9C
S31508002AF01F44049B03EB47030693059B03EB470719
S31508002B000BEB090300EE103A079B9B4512DB002BE3
S31508002B10ACBF09EB030209F10002A36808F101083A
S31508002B209A42039BC8BFA26004330393B4E7B0EE8E
S31508002B3069AADBE7B8EEC00A039B20EE080AD3EDC4
S31508002B40008AFDF785FC38EEC00A78EECA8ADFED02
S31508002B50267AC0EE28AA6AEEA77A17EE900A11F02E
S31508002B60EFFA00221C4B11F08DF941EC100BFFF720
S31508002B70D7F851EC100B11F0D5FD069B0BF1010BA4
S31508002B8023F8020B1AEE900A069311F0D9FA0246B8
S31508002B900B460020154911F073F90022144B11F069
S31508002BA027FB00220C4B11F06DF941EC100BFFF7D7
S31508002BB0B7F851EC100B11F0B5FD27F8020B9FE79B
S31508002BC0BC500620A8370408CC370408E0380408A7
S31508002BD0EA3704085B3804080000E03F0000F83FC5
S31508002BE089380408B2380408000080450000F03F20
S31508002BF00000B040012058E6836973B505460C46C7
S31508002C00164653B9C36A43B13A4B3B481B68D96861
S31508002C1012F032FA002002B070BDB422002120461C
S31508002C2033F007F8324621462846FDF735FC20B929
S31508002C30304B32481B68D968EAE7204650F81C1B17
S31508002C4000F0C4F920B12B4B2D481B68D968DFE783
S31508002C50A36A32465B08013304F12C0105F108002A
S31508002C60FFF7DAFD20B9234B26481B68D968CFE75A
S31508002C70E26A04F1500105F1180000F0A7F820B93E
S31508002C801C4B21481B68D968C2E704F18402A9686D
S31508002C9005F14400FDF798FB04F1A80105F1580079
S31508002CA02EF064FCA36A04F16801B3FA83F3C3F156
S31508002CB019030193B4F8543005F12C000093E36A24
S31508002CC0626E00F0FBF820B90A4B10481B68D968F9
S31508002CD09EE704F17C0105F13C002EF098FD20B931
S31508002CE0044B0B481B68D96892E720462EF075FD01
S31508002CF0012090E7BC500620FB3804083039040848
S31508002D00513904086B39040890390408BA3904089B
S31508002D10E63904082DE9F74F0646002408464BF223
S31508002D20721E4FF400484FF6FF7A01927268DFF878
S31508002D3098C00092C3F10009019A944202DB03B0DD
S31508002D40BDE8F08F326850F8241092B3002BB4BF58
S31508002D5021FA09F19940012933D9B1FA81F50122FD
S31508002D60C5F11F070F2F02FA07F2A1EB0202D5BF22
S31508002D700F3DC5F10F05AA402A415512691C3CF8BA
S31508002D8015B03CF81110A2EB4525A1EB0B016943E0
S31508002D905A4402EB21420025414602EB0742E2FB78
S31508002DA00E15009A090C41EA0541914001F50041CA
S31508002DB0090C51450A4628BF524620F8142001340A
S31508002DC0BAE70021F5E700BF0C3A040838B5034610
S31508002DD010461A680C460A600AB9012038BDD3EDB8
S31508002DE0037A9FED167A67EE877AFCEEE77A5A68D9
S31508002DF04A6017EE902AD3ED027A67EE877AFCEEE0
S31508002E00E77A4A8117EE902AD3ED047A67EE877A35
S31508002E10FCEEE77A17EE903A0A818B810861042165
S31508002E2012F03CF8054660610028D6D1044B0548E7
S31508002E301B68D96812F020F92846CFE700008046BB
S31508002E40BC500620103B040807EE102A012208B5DC
S31508002E50C368B8EE477A02FA03F38A4007EE902A67
S31508002E6000EE103AF8EE677AD0ED010A2DED028BE6
S31508002E70B8EE408A87EE270AD0ED027AF1EE600AAC
S31508002E8030EE270A12F0B2FCDFED0B7A28EE000AC4
S31508002E90BDEC028BB4EEE70AF1EE10FADFBFF6EEF0
S31508002EA0007A30EE270ABDEEC00A10EE103ACCBF03
S31508002EB047F6FF7018B208BD00FEFF462DE9F84F29
S31508002EC00E46016805460B9F3160002956D0FA2048
S31508002ED0C6E9012311F0FCFF0446F06040B9284B0F
S31508002EE028481B68D96812F0C7F82046BDE8F88F4D
S31508002EF0EB680022DB1B0C3B3361BDF828602846D3
S31508002F00F61B3146FFF7A0FF022720800122314633
S31508002F102846FFF799FF4FF0010B3B46608007F103
S31508002F20FF39202F0BFA09F23146284614BF03FA57
S31508002F3009F94FF0FF3902EB520AFFF785FF5246AF
S31508002F40804631462846FFF77FFF4A468246314685
S31508002F502846FFF779FFAAEB080AA0EB0800C0EBA2
S31508002F608A0A0137A0EB0A00212FA4F80480A4F8E6
S31508002F7006A04FF0020324F8080FD0D10120B5E7C8
S31508002F80BC500620313B0408F8B5D0E90276044661
S31508002F9000230568BB4210D1F21A5200B34288BF1B
S31508002FA00022002105EB430032F043FE2946626801
S31508002FB00548BDE8F84023F001B831F81300904001
S31508002FC025F813000133E5E7608505202DE9F04F64
S31508002FD041F6F0732DED028BA1F110029A420546D7
S31508002FE089B000F2FC80202915D909232024013B49
S31508002FF04FEA440401D0A142F9D866003046C5E933
S31508003000021411F065FF286038B9192009B0BDEC23
S31508003010028BBDE8F08F2024EFE7A00011F058FFDF
S3150800302068600028F1D0304611F052FF6D4B074614
S3150800303018600028E9D0304611F04AFF6A4B064668
S3150800304018600028E1D007EE904A9FED687AF8EEFE
S31508003050E77A0023C7EE278A650807F1020A00F116
S31508003060020B0193DDED017AB8EEE78A28EE288A8D
S31508003070B0EE480A12F05CFC10EE100A11F060F887
S3150800308002460B46CDE902010020594910F0F8FE28
S315080030900022584B11F0ACF80022574B11F0A8F853
S315080030A011F088FB07EE900AF8FE677AFDEEE77ADC
S315080030B017EE903AB0EE480A2AF8023C12F0F4FBF2
S315080030C010EE100A11F03CF801F100430593049044
S315080030D00022DDE90401474B11F08AF80022464B2D
S315080030E011F086F88946804611F064FB07EE900ACF
S315080030F0DDE90201F8FE677AFDEEE77A17EE903A07
S3150800310000222AF8043B3A4B10F0BCFE0022394B49
S3150800311011F06EF80022384B11F06AF811F04AFBEC
S3150800312007EE900AF8FE677AFDEEE77A17EE903A10
S315080031302BF8023C09F100430793CDF81880DDE926
S31508003140060111F037FB07EE900AF8FE677AFDEEE6
S31508003150E77A17EE903A2BF8043B019B01339D4220
S3150800316001933FF77FAF4FF48073244AB5F5807F0C
S3150800317093804FF00103C2E903761460936024D06C
S3150800318012D8402D23D007D81D4B1E49102D08BF35
S315080031900B460020536139E7802D1AD0D3211A4BEC
S315080031A01A4A1B4811F05CFEB5F5006F13D007D814
S315080031B0B5F5007F11D0B5F5806FEFD1154BE8E76F
S315080031C0B5F5805FEAD1144BE3E7144BE1E7144BFE
S315080031D0DFE7144BDDE7144BDBE7144BD9E7232075
S315080031E014E700BF5C85052058850520DB0FC9401C
S315080031F00000F03F0000E03F0000E0406085052049
S31508003200488E0508588E0508B93B0408CC3B0408C7
S31508003210033C0408F88D0508D88D0508188E05089E
S31508003220388E0508288E0508E88D0508088E0508D5
S3150800323000B541F2707299B000211A4832F0F9FCD3
S315080032400023194A20211360184ACDE90533136073
S31508003250174A0B9313600A22CDE90012282202921C
S315080032600022144B15200C93134B04920D93012343
S31508003270124ACDE90E030392052206230792104A45
S315080032806846089209920F4A0F490A924FF47A52F1
S315080032901093FFF7B1FCB0FA80F0400919B05DF859
S315080032A004FB00BFF4B605203886052034860520C1
S315080032B0308605203333733F0000A0420000FA45EC
S315080032C06F12833BCDCC4C3D78850520B1F5007F48
S315080032D030B515D100230B4A0B4D116830F8134051
S315080032E0194401336400B3F5007F25F81140F4D181
S315080032F00020136803F50073C3F30B03136030BD96
S315080033002120FCE73486052064CE05202DE9F0430C
S315080033100024274E87B0274D274B2A681B689A42F8
S3150800332009D1002C41D00020244A13682344136095
S3150800333007B0BDE8F0834FF400782B68204FDFF81C
S31508003340889007EB430703AB3A4600934946434642
S3150800335004A82EF0EEF9DDE9033C07EB4307A8EBDA
S315080033600308BCF1000F0ED000230598154A9842B1
S3150800337013D113680134184440F6B833B0FBF3F19F
S3150800338003FB11001060B8F1000FDCD12B6803F5C0
S315080033900073C3F30B032B60BDE711683CF813E019
S315080033A0194426F811E00133E1E71B20C0E700BF06
S315080033B0F4B6052038860520348605202C86052097
S315080033C064CE0520308605207885052040F6B8337A
S315080033D0994270B513D100220A4E0B4C3368134438
S315080033E0B3FBF1F501FB153334F8133020F812302E
S315080033F001328A42F2D10020044B186070BD2120A8
S31508003400FCE700BF30860520F4B605202C8605208B
S3150800341040F6B8339942F0B53BD1002A39D000249A
S3150800342025461D4F1D4E3B682B44B3FBF1FC01FBA3
S315080034301C3336F8133001359C42B8BF1C468D4202
S31508003440F1D1A21A22EAE272A11A0129B8BF012112
S31508003450002440F6B8356FF07F0C3B682344B3FB75
S31508003460F5FE05FB1E3336F813309B1AC3EB032310
S3150800347093FBF1F3803B6345B8BF63467F2BA8BF38
S315080034807F2303550134AC42E7D10020044B186072
S31508003490F0BD2120FCE700BF30860520F4B60520E4
S315080034A02C86052010B501214FF47A5001F094FFBF
S315080034B0044648B94FF40071064A074802F09EF8D8
S315080034C0044618B102F002F9204610BDFFF7B0FE17
S315080034D0FAE700BF471A030864EE052008B5024854
S315080034E001F064FAFEE700BF653C04082DE9FF47D2
S315080034F01446DDE90E7E1A46DDE90C63D1ED025A63
S31508003500616892ED025A0C689FED1E7A0021DFED84
S315080035101E6ADDF840C004340DF10C080DF10409EB
S315080035200DF1080A614506DB0C97317804B0BDE851
S31508003530F04713F081BFB4EC016A25EE866AC6EE41
S31508003540057A67EE807AF4EEC77AF1EE10FACDEDD9
S31508003550017A4CBF45464D468DED037AD5ED007A86
S31508003560F4EE667AF1EE10FACDED026AC8BF55465A
S31508003570D5ED007AF3EE677A17EE905A2EF81150C9
S315080035800131CFE700E07FC700E07F472DE9F04F24
S31508003590CC6805460E46AFB00CB9FFF79FFFD1F8C9
S315080035A01080B8F1000FF8D0C76800223B6838468B
S315080035B0DB6998473B68022231469B698346384651
S315080035C098473B68002231469B69824638469847A9
S315080035D03B6881460122314638469B6998470C90DC
S315080035E0B9F1000F09D16F4B009376236C69284611
S315080035F06D4A6E49A0470120BBE0BBF1000F04D11C
S315080036006B4B00936C697723F1E70C9B23B9694BE5
S3150800361000936C697823EAE7D9F814305A6822616E
S315080036201A6962619A68DB680D920E9323620C9B95
S31508003630E2615B695A689E680B92DB686262DBF836
S3150800364014200F939168D268A364D9F80C30E1620C
S315080036505B42E366DBF80C3022632367D8F8083050
S31508003660666410932365D8F8043011936365D8F817
S31508003670143063661293D8F810301393A36698F83B
S3150800368000305A1E14935342534184F85830139B02
S31508003690DDE90E1200931498119B2EF056FA129B30
S315080036A032460D99159000931498109B2EF04DFAFA
S315080036B0129B013E5E43109B0138013603FB0066F0
S315080036C00D9B139AF61A0F9B1199013B5343159AB2
S315080036D00133013A01FB02330E9A99F81C009B1A32
S315080036E026EAE67623EAE37376105B100928E66590
S315080036F0236640F0D68004F1100630462EF08FFE81
S3150800370004F134030E9304F13803AA6B08F10C088C
S315080037100D93002854D0002323700B9B284659008C
S315080037200F9190470F99BAF1000F37D000239FEDFC
S31508003730227AE0640B9A9A421EDCAB6B28469847BD
S31508003740E0630F9030462EF089FE0B9B06460493E5
S315080037500F9B9FED1A0A03930D9B494602930E9BF6
S315080037602846CDE900830C9A5B46FFF7BFFE002882
S3150800377078D02FB0BDE8F08FDAF8102002EB83027C
S31508003780D2ED007AF8EEE77A67EE877AF3EE677A93
S3150800379017EE902A20F813200133CBE7C4F84CA083
S315080037A0CBE700BFEA3C04086D3C0408D33C040898
S315080037B0FB3C04080D3D04080000003800000047E3
S315080037C00B9B28469E00314690473146AB6BA06757
S315080037D0284698470B9BE067CDE90703A36F494640
S315080037E006930D9B284605930E9B0C9A049317ABDC
S315080037F0039316ABCDE90183CDF800B0534613F019
S315080038009FFE0028B5D101232370E36E1CAA2493DA
S31508003810236F18A92593236D24A82793636D2693F0
S31508003820636E2B93A36E2A93E36D2993236E2893D5
S31508003830636B2C93A36B2D9323691893E3691993F0
S31508003840236A1A9363691B93636C1D93A36C1E9377
S31508003850E36A2193236B2293636A239320AB23F0B5
S3150800386073F90646002E2EDD314628462B6C04F1E8
S315080038700C02984700287FF47CAF3B6849463846D7
S315080038805B6A98473B6838465B6A0C9998473B6879
S31508003890594638465B6A9847BAF1000F29D1002085
S315080038A067E701281DD10223237098F80C30012BF5
S315080038B003D100236360124B04E0032B07D10023D6
S315080038C06360104BA3604FF0FF33E360D5E7022B2C
S315080038D004D10D4B63604FF07E53F3E76FF400039A
S315080038E0E8E76C6913F03AFD084902462846A047FE
S315080038F081E63B68514638465B6A9847CFE700BF82
S31508003900FFFF7F7F0000C040000080BF1F3D040806
S3150800391030B585B00C46054608990AB9FFF7DEFDAD
S315080039201268A2610029F9D00A68A262002BF5D0B4
S31508003930E1681B680029236402DB436C98476067CB
S3150800394004F110002EF0B5FC70B100230293074B6A
S3150800395003900193064B284600936C694FF48A73CB
S31508003960044A0549A047012005B030BD5A3D040860
S31508003970613D04086D3C0408403D04082DE9F04FFC
S315080039802DED048B16461D46B1F96030B7B0099384
S31508003990B1F95C3091ED019A0A93B1F95430D1ED41
S315080039A0029A0B93B1F950301AA80C93B1F9683002
S315080039B0459C0D93B1F9643011460E9333F04EF9D8
S315080039C00EB9FFF78BFD3368294621A8109333F00B
S315080039D045F9002DF5D02B68449928A80F9333F0A4
S315080039E03DF9449B0BB11B68449321462FA833F03D
S315080039F035F9002CE5D0236819931A9B042BE0D1DE
S31508003A00219B042BDDD12F9B042BDAD100232FAA6F
S31508003A1019461AA82EF08AF80323129000212FAA15
S31508003A2021A82EF083F8449B1E9C059043B10022E2
S31508003A300123289828A9824229DB059A9A42C0D1EF
S31508003A401C9B13931D9B1493239B1593249B1693DE
S31508003A50259B039394FBF3F3002BB2D0039A02FB46
S31508003A601344002CADD1059A92FBF3F30893002B6F
S31508003A70A7D0319B1793329B1893129BA34240F30E
S31508003A809F800A9B5B4206930023049314E051F837
S31508003A90045F01326B43CEE74FF00009099B5B4296
S31508003AA00793189B4B4500F38980049B0C9A0133B6
S31508003AB00493069B13440693179B049A9342EBDCE4
S31508003AC00134DAE7089B4FF0000A95FBF3F3DFEDC4
S31508003AD03F8A039A069E53431193159B53452CDC44
S31508003AE0449B002B67D003EB850393ED008A38EEE1
S31508003AF0288AB4EE489AF1EE10FA39FE088AF4EEEE
S31508003B00489AF1EE10FA4B4600952146049A2FA8DA
S31508003B1048BFB0EE698A2DF0D7FF199B013503EB34
S31508003B20800080ED008A059BAB42CBDC079B0B9A95
S31508003B3009F1010913440793B3E74FF0000B079FF8
S31508003B40169B5B4504DC0E9B0AF1010A1E44C4E77A
S31508003B5056EA07032AD4149BBB4227DD139BB342BC
S31508003B6024DD4FF000081EE0119B324643442146EF
S31508003B7000931AA83B462DF0A7FF109B524603EB6D
S31508003B80800090ED008A5B46CDF80080294621A882
S31508003B902DF09AFF0F9B08F1010803EB8000D0ED8A
S31508003BA0007AE8EE278A039B4345DDDC0D9B0BF183
S31508003BB0010B1F44C4E79FED058A98E70025B2E785
S31508003BC0002037B0BDEC048BBDE8F08F0000000084
S31508003BD0002313B50446CDE90033044A044B0549CE
S31508003BE033F012F8204602B010BD00BF8D3500082C
S31508003BF04B1C0308B71A03082DE9F04FCC68074693
S31508003C000E4695B00CB9FFF769FC0B690393002BB8
S31508003C10F9D0C56800222B6828469B6998472B6807
S31508003C20012231469B698146284698472B6802221D
S31508003C3031469B698346284698472B68804600226A
S31508003C4031462846DB6998478246B9F1000F0BD101
S31508003C506D4B00934D237C6938466C4A6C49A047E6
S31508003C60012015B0BDE8F08F20B96A4B00937C6936
S31508003C704E23F1E799F81C6006F0F706012EEFD1FE
S31508003C80B8F1000F00F09F8041460CA832F059FBAE
S31508003C9000220C990CAB8A42C0F2908099F81C302D
S31508003CA0092B72D1039B524619780AAB0093384602
S31508003CB009AB13F0C1FB0028D3D100220023CDE9BC
S31508003CC00C230CABCDE900A35A4643464946384671
S31508003CD0FEF7A6FA0028C4D1D9F81030D9F814107E
S31508003CE0A36004A82EF01EF804F10C0C04AB0FCB4D
S31508003CF08CE80F00D9F80C305B42E361BBF1000F8A
S31508003D0063D0DBF81030DBF81410236204A82EF019
S31508003D1009F804F1240C04AB0FCB8CE80F00DBF890
S31508003D200C30DAF814105B4263630023C4E90E36DC
S31508003D30DAF8103004A823642DF0F4FF04F1440CDB
S31508003D4004AB0FCB8CE80F00DAF80C309DED0C0BAA
S31508003D506365FCF74DFC10EE103AA4F85830099B41
S31508003D6004F1080084F85A300A9B84F85B302EF078
S31508003D707EFB84F8600050BB20469DED0C0B0BA91A
S31508003D8013F02CFD0B9B5B4263602B684946284663
S31508003D905B6A98472B68594628465B6A9847B8F184
S31508003DA0000F04D02B68414628465B6A98472B6863
S31508003DB0284651465B6A9847002052E753F8040F95
S31508003DC00132464367E7464668E75B469BE7B8F134
S31508003DD0000FDAD0D8F81030384603937100BB6B61
S31508003DE09847074600283FF43BAF014632460398FA
S31508003DF003F0B6F900287FF433AF94F86030A76370
S31508003E00002BC2D1B8E700BFEA3C04086E3D04089F
S31508003E10D33C0408FB3C04082DE9F04F2DED028B3A
S31508003E20012AA1B01C46DDE92C762E9D15D0032A61
S31508003E3018D0F7EE007ADFED4C8A022A9FED4B8AFE
S31508003E4047FEA88AFFEE007A07FE888A214604A85C
S31508003E5032F004FF4CB9FFF741FBDFED438A9FEDD3
S31508003E60448AF3E7F1EE088AF9E7236839460BA88E
S31508003E70039332F0F3FE002FEDD03B68314612A8CB
S31508003E80029332F0EBFE002EE5D0294619A83768D2
S31508003E9032F0E4FE002DDED0199C2B68013C214649
S31508003EA019A801932DF027FF0B9D0090A91E0BA8BA
S31508003EB02DF0CBFD2146814619A82DF0C6FD81457A
S31508003EC00446C8D1691E0BA82DF0BFFD0023024683
S31508003ED09C461846DFED266A009961453DDD0025BA
S31508003EE0019901EB8009039901EB8308294621E032
S31508003EF0BAEC016ABBEC017AE6EE077A0EF1010E1E
S31508003F007245F5DC0FB307EB810E9EED007A77EE6E
S31508003F10877AF4EE487AF1EE10FA48BFF0EE487A5E
S31508003F20F4EE687AF1EE10FA78FEA77AE9EC017AEF
S31508003F3001311544A1420BDA029EC2464FF0000E2B
S31508003F40DFED0B7A06EB850BDAE7B0EE667ADEE78D
S31508003F500CF1010C20441344BEE7002021B0BDEC4F
S31508003F60028BBDE8F08F00BFFFFF7F7FFFFF7FFF5B
S31508003F7000000000002313B50446CDE90033044AC7
S31508003F80044B054932F040FE204602B010BD00BF82
S31508003F90F93B000841420008E51C03082DE9F04FEB
S31508003FA092F86070E1B01446DDE96A981E466C9D89
S31508003FB008905FB11F7A092F08D1CDE96B85CDF836
S31508003FC0A89161B0BDE8F04F2DF0C7BEB8F1000F5B
S31508003FD001D1FFF783FAD8F80070002F00F08B8024
S31508003FE029462FA832F03AFE2F9B022BF1D1309B9F
S31508003FF0494636A8DDF8C4B0099332F02FFE369943
S3150800400036A801392DF021FD314682463DA832F009
S3150800401025FEE269CDF874A02A92626D099B2C925E
S31508004020626B30462B9294F95A201A932D9294F982
S315080040305B201EAF2E922268169262680124CDE993
S315080040401EA44FF0000A5242CDE926341792CDE954
S31508004050204BCDE9244BCDE9284BCDE91B44CDE9CE
S315080040602244CDE918AA2DF072FE834648462DF063
S315080040706EFED8F80030002DABD02A682AA9069221
S3150800408026AACDE9043222ABCDE90203CDE900B771
S315080040901AAB16AA18A822F00DFD50B3089B304695
S315080040A0D3F814B02DF053FE064648462DF04FFEC1
S315080040B02B6816AA069326AB0593D8F800302AA9CA
S315080040C0049322ABCDE90203CDE900671AAB18A821
S315080040D022F0F0FC564BCDE9020A0193554B08989D
S315080040E00093554AE4235549D847204661B0BDE8B0
S315080040F0F08F0020FAE7E36931460B93636B44A817
S315080041000C93636D0D9323680E9363685B420F935C
S3150800411094F95A30089394F95B30099332F09EFD6E
S3150800412030462DF014FE494610904BA832F096FD05
S3150800413048462DF00CFE4146119052A832F08EFDED
S31508004140294659A8D8F800B032F088FD002D3FF46A
S3150800415040AF4B9E2B68012E14937FF73AAF599CBC
S31508004160002C7FF736AFDDE9083293423FF731AFCF
S31508004170013C214659A82DF0BEFD2146129059A8AA
S315080041802DF063FCB11E05464BA82DF05EFC85425A
S315080041903FF71FAF711E4BA82DF057FC3C4606464D
S315080041A0B946BA46129B5345A3DD4FF00008149B47
S315080041B047464B440A932BE01EF9012B0C991392A0
S315080041C01CF9012B01330A4415920B99139A0A44D8
S315080041D01146159A01FB02009E42EDDCBBF1000F69
S315080041E002D05BF827301844DDE90E1213F0BEFA48
S315080041F00D9B01371844089BB0449842B8BF18462F
S31508004200099B9842A8BF18460A9B03F8010B0A9314
S31508004210BD4208DD109B03EB040E119B03EB080C53
S3150800422000231846D8E70AF1010AA9443444B9E735
S31508004230DF3D0408F43D04086E3D0408403D0408CB
S315080042402DE9F043D1F8109004460D4685B0B9F132
S31508004250000F01D1FFF742F9002232F0F7FC0122E4
S3150800426029460646204632F0F1FC02222946074630
S31508004270204632F0EBFC002280462946204632F0E2
S31508004280E7FCEA680346002AE4D0307A01280BD016
S31508004290092816D0656913F061F8337A02460D4984
S315080042A02046A847012009E099F800202946CDE9CB
S315080042B00183204633460097FFF7AEFD05B0BDE8FB
S315080042C0F083CDE901832946334620460097FFF758
S315080042D065FEF3E7183F04082DE9F041CC6805466A
S315080042E00E46A4B00CB9FFF7F9F80B69002BFAD003
S315080042F0002232F0ABFC002280463146284632F0D6
S31508004300A7FC0746B8F1000F0AD1444B009340F2C8
S3150800431009136C692846424A4249A047012014E01D
S3150800432028B9414B00936C694FF48573F2E7D8F8C6
S315080043300030026894F84C602361E261B6B904F172
S3150800434008002EF0C8F818B9002024B0BDE8F0819E
S31508004350364BCDE902600193354B284600936C69CC
S3150800436040F211132E4A3349A047D7E7012E2ED122
S315080043706169206A0891A16907960991E1680C901C
S31508004380606ACDE90A16CDE90D01A16B05A81A9157
S31508004390E16B1991616C1C91A16C1B91A16A1D912D
S315080043A0E16A12961E91216B1391616BCDE9141681
S315080043B00021CDE9051102920BAA019212AA0092D8
S315080043C019A907AA22F078FC0028BDD08BE7022E8F
S315080043D0A4D1A36B41461C93E36B0BA81D93236BD7
S315080043E01E93636B1F93636CADF86830A36CADF8CE
S315080043F06630236822936368239332F02FFC39468C
S3150800440012A8D8F8004032F029FC3B6822460093EF
S315080044100BA912AB19A82DF0BEFC95E7EA3C0408D7
S31508004420343F0408D33C0408FB3C04085A3D0408FE
S31508004430613D0408403D04082DE9F04FD1E90345E4
S31508004440C6689BB0336800229B6981463046884619
S3150800445098473368074641460022DB693046984745
S3150800446080462B7839465A1E5342534184F84030C9
S31508004470AB680CA8A3636B684FF0010BE3632B6969
S315080044802363EB68636331F05CFF414613A831F0A0
S3150800449058FF002313AA19460CA82DF047FB3946E6
S315080044A0A0600CA831F04DFF414613A831F049FF32
S315080044B0032313AA19460CA82DF038FB7B69E06084
S315080044C09A68D3F80CA0D8F81430626103929A68F7
S315080044D0DB68226263620A93AB68514604936B6891
S315080044E0C4F818A005932B6909920693EB680793FD
S315080044F02B78079A08930898059BCDF800B02DF0FD
S3150800450024FB049B069A03990B90CDF800B00898F3
S315080045102DF01BFB0499069A431E01FB0322039BFD
S315080045200799D21A22EAE2720B9B42FA0BFC059A09
S31508004530013B02FB0313099AA3EB0A0323EAE3737D
S31508004540824243FA0BF301D0FEF7C8FFDDE90A21E0
S315080045508A42F9D1C4E911C33B7F297D012B24D1B5
S315080045600223012984F84C3003D1002323601B4B16
S3150800457004E003290FD100232360194B63603368D5
S31508004580394630465B6A98473368304641465B6A27
S31508004590984700201EE0022904D1124B23604FF0F1
S315080045A07E53EBE76FF40003E0E704F12C03009376
S315080045B04246484604F1280312F03EFF387F092890
S315080045C0DDD0D9F8144012F0C9FE0749024648461C
S315080045D0A04758461BB0BDE8F08F00BFFFFF7F7F9E
S315080045E00000C040000080BF1F3D04082DE9F743C6
S315080045F0D1F80C9005460E46B9F1000F01D1FEF729
S315080046006DFF0B69002BFAD0C46800222368204688
S315080046109B69984723680746002231462046DB698E
S315080046209847804667B9174B00939A236C692846C2
S31508004630154A1649A0470125284603B0BDE8F08368
S3150800464020B9134B00936C699B23F0E72846314643
S31508004650FFF7F2FE054650B93B7F092B07D109F152
S3150800466008002DF03BFF80F0010089F84C00236814
S31508004670394620465B6A98472368414620465B6A66
S315080046809847D9E7EA3C0408343F0408D33C0408B1
S31508004690FB3C0408002313B50446CDE90033044A5D
S315080046A0044B054932F0B0FA204602B010BD00BFEF
S315080046B0ED450008D9420008851D0308D0F80421F5
S315080046C038B5072A06D8002300F1C8049A4205D14E
S315080046D000200AE0064800F069F9FEE754F8045F8E
S315080046E08D4203D13A3350F8230038BD0133EDE744
S315080046F0653C040820292DE9F04105460F46144675
S31508004700984607D11F4831F0BEFEBDE8F0411E4865
S3150800471031F0B9BE03681B68984740B11B4831F0B1
S31508004720B2FE39461A48BDE8F04131F0ACBED5F8BC
S31508004730C8C0BCF1060F06D93946164831F0A3FEA3
S3150800474007211548EFE74FF01C0E0FCC0EFB0C5E49
S315080047500EF104060FC6D5F8043194E8070086E87A
S3150800476007000CF10102CEF81870C5F8C82005EB51
S3150800477083020133C2F8CC70C2F8E880C5F8043168
S31508004780BDE8F0819D3F0408CE3F0408E33F0408D6
S31508004790124004083340040864400408014B1868B2
S315080047A0704700BF14880520014B1868704700BF82
S315080047B010880520014B1868704700BF0C88052033
S315080047C030B52D4D89B0D5E8AF4F14F0010411D19D
S315080047D0284631F006F968B12848294B294A2A495A
S315080047E00360C0F8C840C0F8044131F0F5F828461F
S315080047F031F003F901A8FFF7EBF901AA0321234BCE
S315080048001E48FFF777FF01A8FFF744FF01AA112109
S315080048101F4B1A48FFF76EFF01A814F055F901AAB5
S3150800482028211C4B1548FFF765FF01A8FFF7A2FBD7
S3150800483001AA0921184B1148FFF75CFF01A800F0EF
S3150800484047FA01AA1921154B0C48FFF753FF01A88F
S3150800485013F0E0FD01AA7221114B0848FFF74AFF41
S3150800486001A813F0C3FD02210E4B044801AAFFF765
S3150800487041FF024809B030BD3C8605204086052028
S31508004880D4400408404F0620331F030883610308F9
S315080048900F620308CB600308657201080D730108EF
S315080048A0A96003082F6103082DE9FF412F4CD4E8BE
S315080048B0AF3FDB070BD4204631F093F838B12C4ACA
S315080048C02C492D4831F088F8204631F096F82A4BC5
S315080048D02A4E33602A4B1A68D7189B58FB1A1A882F
S315080048E0042A04D99B8813B1FB58032B04D0254905
S315080048F0214831F0AEFBFEE7FFF762FF8046224D06
S31508004900D5E8AF4F14F0010415D1284631F069F8FF
S3150800491088B11E4B424639460093CDE901441C4BEB
S315080049201C4831F03EFD124A1B491A4831F054F82A
S31508004930284631F062F81748184D286013F01AF91E
S31508004940044620B11649306831F083FBFEE701467C
S31508004950286812F0E5FF134B21461860286812F004
S31508004960F5FF114B186004B0BDE8F08108880520F2
S31508004970404F0620311F0308444F0620188805209B
S31508004980108604087740040848870520407E0500FD
S31508004990000400204C870520476403081488052076
S315080049A094400408108805200C88052038B5094B62
S315080049B004461B7863B10AF01BF80546204631F019
S315080049C05AF9214602462846BDE838402EF058BD19
S315080049D038BD00BF6C5206202DE9F0470B68044627
S315080049E00F46C56892B013B11B68012B11D001227E
S315080049F0CDE902323C4B01933C4B00932F2365696A
S31508004A0020463B4A3B49A8470124204612B0BDE848
S31508004A10F0874B6813B11B68012B09D00122CDE939
S31508004A200232314B0193344B009365693023E7E733
S31508004A302B68002228469B699847064640B92F4BA3
S31508004A400093322365692046294A2D49A847DBE7A2
S31508004A5043691B68002B04DC2A4B009365693323E2
S31508004A60F1E72B68002239462846DB6998478046D5
S31508004A7020B9254B009365693523E4E7D7F80C90F0
S31508004A80B9F1000F04D1214B009365693723DAE7A2
S31508004A90CDF800903B69024631462046FDF758FCA2
S31508004AA03146044604A831F04CFC41460BA831F0C7
S31508004AB048FC049F0BAA013F394604A82DF077FA53
S31508004AC03B46824639460BAA04A82DF02FF82B68D8
S31508004AD03146C9E90EA05B6A284698472B684146C5
S31508004AE028465B6A984790E7B77B05088041040823
S31508004AF0E8400408403D040890410408EA3C0408DC
S31508004B00D33C0408A1410408FB3C0408BB41040843
S31508004B102DE9F04F2DED048B0C460E6885B0013E4D
S31508004B2031460090914620461A461D462DF03FFA1A
S31508004B3033462A463146074620462CF0F7FF00261C
S31508004B400446B046DFED299A03AAB84504DB05B04A
S31508004B50BDEC048BBDE8F08F09EB860B5846B0EE2A
S31508004B60698A0021B500A1428DED038A0FDB129BED
S31508004B704FF0000A1D442B46DFED1D8AA24514DBC3
S31508004B800023A3422ADB08F101082644DDE7034691
S31508004B90D3ED007AF4EEC87AF1EE10FAD8BF1346D0
S31508004BA0043093ED008A0131DDE70193009BBBECED
S31508004BB0019AD3E900010FF0FDFD39EE489A00EE9F
S31508004BC0100A20EE090A10F0A5FD019B78EE808AEE
S31508004BD0A3EC010A0AF1010A03AACFE795ED007AC8
S31508004BE0C7EE287A0133E5EC017ACAE7FFFF7FFFB3
S31508004BF000000000F0B50022A5B00C46054632F0CC
S31508004C0025F8214607460022284632F021F8E468AE
S31508004C1006460CB9FEF762FC14AD0FCC0FC50FCCD7
S31508004C200FC50FCC0FC594E80F0085E80F00387A3A
S31508004C3007282DD0092817D001283ED1394606A8BD
S31508004C4032F00CF831460DA83C6832F007F8002E11
S31508004C50E0D033682246009306A90DAB14A8FFF7E7
S31508004C6057FF002025B0F0BDD6F800C0367A1A9D49
S31508004C70179C092E38682299CDE9015C169B239A60
S31508004C80009402D122F0B0F9EBE722F0BBF9E8E78D
S31508004C901E9B386804931F9BDDE922120593DDE904
S31508004CA01634002EB6D03568029504ADCDE9004518
S31508004CB022F0B6F90028D4D0ACE712F04FFB3A7AC6
S31508004CC00146024831F0DFFB0120CBE7183F040814
S31508004CD0002313B50446CDE90033044A044B0549BD
S31508004CE031F092FF204602B010BD00BFD949000836
S31508004CF0F54B00089D1F030873B5044617F0B0FA74
S31508004D0000283AD101261F4B2677A361A36843F4EE
S31508004D108013A3602EF026FFA368A0801B030CD483
S31508004D20B0F5FA7F09D93EF0E5FA05463146304630
S31508004D303CF0D2FD28463EF0D8FA204617F0B8FADD
S31508004D40E0B9E068E0B119F065FC34F049FB35F0EC
S31508004D50BBFB34F0E6F800220121042034F031FBD5
S31508004D60002301A88DF8043017F06CFC04200321F9
S31508004D7019F080F920462DF047F9002002B070BDE1
S31508004D800148E0E7050403006D52062038B50546DC
S31508004D903EF0B9FAAC688CB93EF0B0FA4FF0FF3184
S31508004DA068683EF0A0F80028F2D0063006288EBFC4
S31508004DB00124054B1C5C44F0004403E00023AB606F
S31508004DC03EF09CFA204638BD52420408F8B504461F
S31508004DD0104E114D114F2046FFF7D8FFB0F5803F12
S31508004DE004D04FF4387130462DF051FC2B6803F08F
S31508004DF03803202B07D1284630F08AFD082138468B
S31508004E002DF00AF9E7E740F2ED2130462DF03FFC98
S31508004E10F4E700BFD6410408A916062040880520F5
S31508004E2038B50446074D2046FFF7B0FFB0F5807F3A
S31508004E3004D040F2CE2128462DF029FC20F062FE4F
S31508004E40F1E700BFD64104082DE9F0411F46036883
S31508004E500446884616461BB1DE2111482DF017FC7C
S31508004E6063681BB1DF210E482DF011FC0025424670
S31508004E7029460120A56002F0C1FE606058B130469F
S31508004E803A46214602F0F6FE0646206030B96068CA
S31508004E902DF07EFB66600120BDE8F0812846FBE721
S31508004EA0D64104082DE9F0411C4607460E4615462C
S31508004EB03BF03AF9174B1B68834207D123462A462B
S31508004EC031463846BDE8F04115F08EB9DFF8608006
S31508004ED0D8F800003EF044F820B14FF442710E486D
S31508004EE02DF0D5FB0D4B04211F600D4B09481E60A4
S31508004EF00C4B1D600C4B1C6005230C4C23602DF0DD
S31508004F008BF84FF0FF31D8F800003DF0ECFF206831
S31508004F10BDE8F08140880520D64104085C88052054
S31508004F205888052054880520508805204C88052077
S31508004F301C88052010B50748074C2DF07CF8074853
S31508004F402DF079F8236823B120682DF000FB0023A3
S31508004F50236010BD3488052024880520288805206C
S31508004F602DE9F041054608242846FFF70FFF0443BC
S31508004F70E607F9D520F018FF0546002835D1394A45
S31508004F80137803F0FD0343F004031370364E374FCE
S31508004F90DFF8F480E3062BD50024354E20F012FF07
S31508004FA0FFF7C8FF706834602DF0F2FA01226FF03F
S31508004FB05F012C4B74601A702E4B1878197059784B
S31508004FC0002D48D00321597099789A70DA7806220C
S31508004FD0ADB2DA709D809C71264830F099FC3BF0A2
S31508004FE0A3F8BDE8F0412DF0F4BA44F01004CDE77B
S31508004FF060070FD520493368D8F800203868096853
S3150800500015F0F2F81D4B24F0040418601C4B1868C0
S315080050103DF093FF20F0EAFC21070ED520F008FDAD
S3150800502058B1144839F0F1FF0028B3D14FF4803154
S31508005030144824F008042CF0EFFF3AF03DF808B9BC
S315080050402207A7D40A48FFF7A1FE0443A2D520F0F9
S31508005050CDFC0824E2E75D7099789A70D978DA7001
S31508005060BAE700BFAD170620508805205C880520E2
S3150800507040880520A9160620588805204C88052052
S315080050801C880520288805205488052038B5002165
S3150800509001200B4A02F0B2FD0A4C2060236853B186
S315080050A0094802F06DFD094B18601D682DB9206886
S315080050B02DF06EFA2560012038BD0020FCE700BF00
S315080050C0144304081C880520244304082088052066
S315080050D010B5164C236823B140F2811114482DF0FF
S315080050E0D6FA144802F04CFD20602368E3B1124B4F
S315080050F0124A13491348FFF7A7FE044690B9124B04
S31508005100124A13491348FFF79FFE044650B9124B3B
S31508005110124A13491348FFF797FE044610B9124876
S3150800512015F0C8F8204610BD0124FBE724880520A1
S31508005130D641040834430408BC430408614F0008F8
S31508005140AC4304084088052088430408214E00081B
S31508005150784304083488052054430408CD4D0008D4
S315080051604443040828880520A54E00084FF480719A
S3150800517001482CF051BF00BF3488052002210148A0
S315080051802CF04ABF4088052008B53CF019F9B0B99B
S315080051900E4B187810F0010010D03AF0C5FF0C4BF2
S315080051A01B6883420DD00B4B4FF0FF3118683DF05A
S315080051B041FE0630062806D8074B185C08BD1420A1
S315080051C0FCE72020FAE70120F8E700BFAD17062024
S315080051D040880520208805205242040808B5084B57
S315080051E01B78DB070BD53AF09FFF064B1B688342FB
S315080051F005D0054B1868BDE808403DF04FBE08BD10
S31508005200AD1706204088052020880520024A137815
S3150800521043F0010313707047AD17062008B50A4B13
S315080052201A7812070DD41A7812F0060F07D11A78D1
S31508005230012142F0020205481A702CF0EDFE00200A
S3150800524008BD0220FCE700BFAD17062040880520F0
S3150800525008B5FFF71BFF20B140F2F6210B482DF0E9
S3150800526016FA0B490B4820F067FD20B140F2FB21E6
S3150800527006482DF00CFA20F091FD30B1BDE8084043
S3150800528040F2093101482DF002BA08BDE04304088E
S3150800529058440408FC44040808B5FFF7BFFF30B1BA
S315080052A0BDE8084040F2273101482DF0F0B908BDA5
S315080052B0E043040810B5044618B9412103482DF007
S315080052C0E6F900230E20236010BD00BF84450408BC
S315080052D0F8B50E460546D0B1C9B10E4B0E4F196842
S315080052E0386805F04DFB044678B9062332460B4963
S315080052F0386805F013FC044638B901232A460849DC
S31508005300386805F00BFC00B12C702046F8BD212446
S31508005310FBE700BF08500620285006202C00040092
S315080053203C00040007B5684601A92CF094FE68B94C
S315080053300A22009B0B49B3FBF2F30B80019B93FBFC
S31508005340F2F3094A138003B05DF804FB1128FAD179
S315080053504FF6FF72034B1A8047F6FF72024B1A800C
S31508005360F1E700BF06520620045206200368174AD2
S3150800537023F47F4323F00703934213B5044623D14E
S31508005380B0F80530192B0ED1FFF7CCFF0022104BD1
S3150800539001920093B4F80510022320791BF06CFBE8
S315080053A090B100BEFDE71B2B0ED1FFF7BBFF002215
S315080053B0084B01920093B4F80510022320791BF0DC
S315080053C05BFB08B100BEFDE702B010BDA0000A01F4
S315080053D004520620065206202DE9F0414B1E012BE9
S315080053E080460E468CB000F29B804E4F04AC3D467C
S315080053F00FCD0FC495E80F0084E80F003B8C4A4890
S31508005400ADF800307B8C0124ADF80430BB8C474DD9
S31508005410ADF808303DF08FFF45483DF08CFF03A9F5
S3150800542003203DF083FF00220121684603F0B4FC07
S31508005430042100220DEB010003F0AEFC002204213A
S3150800544002A803F0A9FC0D234FEA881103988DF8EA
S3150800545028308DF8194008F097FE0323A64208BFA6
S315080054608DF8116009908DF81B408DF8133004A94A
S3150800547030486C6008F028FF04230D226C616B61CC
S315080054802D4B1A622D4A1A634FF003125A6302F51E
S3150800549000325A6204F0ECF90021294804F070F948
S315080054A0044620B1012420460CB0BDE8F081254A07
S315080054B0012ED37823F03C0343F03403D370D37C16
S315080054C023F03C0343F03403D37412D101461E483B
S315080054D004F056F90028E5D11C4AD37823F03C039A
S315080054E043F03403D370D37C23F03C0343F03403F6
S315080054F0D3743DF0FFFE0121054608463CF0ECF961
